{
    "contractName": "SimpleStorage",
    "abi": [
        {
            "inputs": [
                {
                    "internalType": "string",
                    "name": "_name",
                    "type": "string"
                },
                {
                    "internalType": "int256",
                    "name": "_fav",
                    "type": "int256"
                }
            ],
            "name": "addPerson",
            "outputs": [],
            "stateMutability": "nonpayable",
            "type": "function"
        },
        {
            "inputs": [
                {
                    "internalType": "uint256",
                    "name": "",
                    "type": "uint256"
                }
            ],
            "name": "listOfPerson",
            "outputs": [
                {
                    "internalType": "string",
                    "name": "name",
                    "type": "string"
                },
                {
                    "internalType": "int256",
                    "name": "fav",
                    "type": "int256"
                }
            ],
            "stateMutability": "view",
            "type": "function"
        },
        {
            "inputs": [
                {
                    "internalType": "string",
                    "name": "",
                    "type": "string"
                }
            ],
            "name": "nametofav",
            "outputs": [
                {
                    "internalType": "int256",
                    "name": "",
                    "type": "int256"
                }
            ],
            "stateMutability": "view",
            "type": "function"
        },
        {
            "inputs": [],
            "name": "retrieve",
            "outputs": [
                {
                    "internalType": "int256",
                    "name": "",
                    "type": "int256"
                }
            ],
            "stateMutability": "view",
            "type": "function"
        },
        {
            "inputs": [
                {
                    "internalType": "int256",
                    "name": "_myfav",
                    "type": "int256"
                }
            ],
            "name": "store",
            "outputs": [],
            "stateMutability": "nonpayable",
            "type": "function"
        }
    ],
    "bytecode": "608060405234801561001057600080fd5b5061056a806100206000396000f3fe608060405234801561001057600080fd5b50600436106100575760003560e01c80630ce121d31461005c5780632e64cec11461008657806370d464e114610098578063ba01d96a146100ad578063d80deced146100d8575b600080fd5b61006f61006a366004610232565b6100eb565b60405161007d92919061026f565b60405180910390f35b6000545b60405190815260200161007d565b6100ab6100a636600461034d565b6101a7565b005b61008a6100bb366004610392565b805160208183018101805160028252928201919093012091525481565b6100ab6100e6366004610232565b600055565b600181815481106100fb57600080fd5b906000526020600020906002020160009150905080600001805461011e906103cf565b80601f016020809104026020016040519081016040528092919081815260200182805461014a906103cf565b80156101975780601f1061016c57610100808354040283529160200191610197565b820191906000526020600020905b81548152906001019060200180831161017a57829003601f168201915b5050505050908060010154905082565b6040805180820190915282815260208101829052600180548082018255600091909152815160029091027fb10e2d527612073b26eecdfd717e6a320cf44b4afac2b0732d9fcbe2b7fa0cf6019081906102009082610458565b506020820151816001015550508060028360405161021e9190610518565b908152604051908190036020019020555050565b60006020828403121561024457600080fd5b5035919050565b60005b8381101561026657818101518382015260200161024e565b50506000910152565b604081526000835180604084015261028e81606085016020880161024b565b602083019390935250601f91909101601f191601606001919050565b634e487b7160e01b600052604160045260246000fd5b600082601f8301126102d157600080fd5b813567ffffffffffffffff808211156102ec576102ec6102aa565b604051601f8301601f19908116603f01168101908282118183101715610314576103146102aa565b8160405283815286602085880101111561032d57600080fd5b836020870160208301376000602085830101528094505050505092915050565b6000806040838503121561036057600080fd5b823567ffffffffffffffff81111561037757600080fd5b610383858286016102c0565b95602094909401359450505050565b6000602082840312156103a457600080fd5b813567ffffffffffffffff8111156103bb57600080fd5b6103c7848285016102c0565b949350505050565b600181811c908216806103e357607f821691505b60208210810361040357634e487b7160e01b600052602260045260246000fd5b50919050565b601f82111561045357600081815260208120601f850160051c810160208610156104305750805b601f850160051c820191505b8181101561044f5782815560010161043c565b5050505b505050565b815167ffffffffffffffff811115610472576104726102aa565b6104868161048084546103cf565b84610409565b602080601f8311600181146104bb57600084156104a35750858301515b600019600386901b1c1916600185901b17855561044f565b600085815260208120601f198616915b828110156104ea578886015182559484019460019091019084016104cb565b50858210156105085787850151600019600388901b60f8161c191681555b5050505050600190811b01905550565b6000825161052a81846020870161024b565b919091019291505056fea2646970667358221220ca99ebdf0d53e67c95465c32f63d41cc3cef9f4e61c9c70f8ed9bb562383a45064736f6c63430008120033",
    "sourcePath": "c:/Users/miqba/Documents/Programming/Solidity/simple-storage/SimpleStorage.sol",
    "compiler": {
        "name": "solc",
        "version": "0.8.18+commit.87f61d96"
    },
    "functionHashes": {
        "addPerson(string,int256)": "70d464e1",
        "listOfPerson(uint256)": "0ce121d3",
        "nametofav(string)": "ba01d96a",
        "retrieve()": "2e64cec1",
        "store(int256)": "d80deced"
    },
    "gasEstimates": {
        "creation": {
            "codeDepositCost": "277200",
            "executionCost": "318",
            "totalCost": "277518"
        },
        "external": {
            "addPerson(string,int256)": "infinite",
            "listOfPerson(uint256)": "infinite",
            "nametofav(string)": "infinite",
            "retrieve()": "2281",
            "store(int256)": "22378"
        }
    }
}